{
  "contractName": "Campaign",
  "abi": [
    {
      "inputs": [
        {
          "internalType": "uint256",
          "name": "_minimumContribution",
          "type": "uint256"
        },
        {
          "internalType": "address",
          "name": "creator",
          "type": "address"
        },
        {
          "internalType": "string",
          "name": "_campaginName",
          "type": "string"
        },
        {
          "internalType": "string",
          "name": "_campaignDescription",
          "type": "string"
        },
        {
          "internalType": "string",
          "name": "_campaginImage",
          "type": "string"
        },
        {
          "internalType": "string",
          "name": "timerStart",
          "type": "string"
        },
        {
          "internalType": "string",
          "name": "timerEnd",
          "type": "string"
        }
      ],
      "stateMutability": "nonpayable",
      "type": "constructor"
    },
    {
      "anonymous": false,
      "inputs": [
        {
          "indexed": false,
          "internalType": "string",
          "name": "actionTaken",
          "type": "string"
        }
      ],
      "name": "CampaignAction",
      "type": "event"
    },
    {
      "inputs": [
        {
          "internalType": "address",
          "name": "",
          "type": "address"
        }
      ],
      "name": "approvers",
      "outputs": [
        {
          "internalType": "bool",
          "name": "",
          "type": "bool"
        }
      ],
      "stateMutability": "view",
      "type": "function",
      "constant": true
    },
    {
      "inputs": [],
      "name": "approversCount",
      "outputs": [
        {
          "internalType": "uint256",
          "name": "",
          "type": "uint256"
        }
      ],
      "stateMutability": "view",
      "type": "function",
      "constant": true
    },
    {
      "inputs": [],
      "name": "campaginImage",
      "outputs": [
        {
          "internalType": "string",
          "name": "",
          "type": "string"
        }
      ],
      "stateMutability": "view",
      "type": "function",
      "constant": true
    },
    {
      "inputs": [],
      "name": "campaignDescription",
      "outputs": [
        {
          "internalType": "string",
          "name": "",
          "type": "string"
        }
      ],
      "stateMutability": "view",
      "type": "function",
      "constant": true
    },
    {
      "inputs": [],
      "name": "campaignEndTimer",
      "outputs": [
        {
          "internalType": "string",
          "name": "",
          "type": "string"
        }
      ],
      "stateMutability": "view",
      "type": "function",
      "constant": true
    },
    {
      "inputs": [],
      "name": "campaignName",
      "outputs": [
        {
          "internalType": "string",
          "name": "",
          "type": "string"
        }
      ],
      "stateMutability": "view",
      "type": "function",
      "constant": true
    },
    {
      "inputs": [],
      "name": "campaignStartTimer",
      "outputs": [
        {
          "internalType": "string",
          "name": "",
          "type": "string"
        }
      ],
      "stateMutability": "view",
      "type": "function",
      "constant": true
    },
    {
      "inputs": [
        {
          "internalType": "uint256",
          "name": "",
          "type": "uint256"
        }
      ],
      "name": "listcontributes",
      "outputs": [
        {
          "internalType": "string",
          "name": "dateContribute",
          "type": "string"
        },
        {
          "internalType": "address",
          "name": "contributer",
          "type": "address"
        },
        {
          "internalType": "uint256",
          "name": "mountContribute",
          "type": "uint256"
        }
      ],
      "stateMutability": "view",
      "type": "function",
      "constant": true
    },
    {
      "inputs": [],
      "name": "manager",
      "outputs": [
        {
          "internalType": "address",
          "name": "",
          "type": "address"
        }
      ],
      "stateMutability": "view",
      "type": "function",
      "constant": true
    },
    {
      "inputs": [],
      "name": "minimumContribution",
      "outputs": [
        {
          "internalType": "uint256",
          "name": "",
          "type": "uint256"
        }
      ],
      "stateMutability": "view",
      "type": "function",
      "constant": true
    },
    {
      "inputs": [
        {
          "internalType": "uint256",
          "name": "",
          "type": "uint256"
        }
      ],
      "name": "ratings",
      "outputs": [
        {
          "internalType": "string",
          "name": "dateRating",
          "type": "string"
        },
        {
          "internalType": "address",
          "name": "reviewer",
          "type": "address"
        },
        {
          "internalType": "string",
          "name": "descriptionRating",
          "type": "string"
        },
        {
          "internalType": "uint256",
          "name": "starRating",
          "type": "uint256"
        }
      ],
      "stateMutability": "view",
      "type": "function",
      "constant": true
    },
    {
      "inputs": [
        {
          "internalType": "uint256",
          "name": "",
          "type": "uint256"
        }
      ],
      "name": "requests",
      "outputs": [
        {
          "internalType": "string",
          "name": "description",
          "type": "string"
        },
        {
          "internalType": "uint256",
          "name": "value",
          "type": "uint256"
        },
        {
          "internalType": "address payable",
          "name": "recipient",
          "type": "address"
        },
        {
          "internalType": "bool",
          "name": "complete",
          "type": "bool"
        },
        {
          "internalType": "uint256",
          "name": "approvalCount",
          "type": "uint256"
        }
      ],
      "stateMutability": "view",
      "type": "function",
      "constant": true
    },
    {
      "inputs": [
        {
          "internalType": "address",
          "name": "",
          "type": "address"
        }
      ],
      "name": "reviewers",
      "outputs": [
        {
          "internalType": "bool",
          "name": "",
          "type": "bool"
        }
      ],
      "stateMutability": "view",
      "type": "function",
      "constant": true
    },
    {
      "inputs": [],
      "name": "sumRating",
      "outputs": [
        {
          "internalType": "uint256",
          "name": "",
          "type": "uint256"
        }
      ],
      "stateMutability": "view",
      "type": "function",
      "constant": true
    },
    {
      "inputs": [
        {
          "internalType": "string",
          "name": "_dateContribute",
          "type": "string"
        },
        {
          "internalType": "uint256",
          "name": "_mountContribute",
          "type": "uint256"
        }
      ],
      "name": "contribute",
      "outputs": [],
      "stateMutability": "payable",
      "type": "function",
      "payable": true
    },
    {
      "inputs": [
        {
          "internalType": "string",
          "name": "_description",
          "type": "string"
        },
        {
          "internalType": "uint256",
          "name": "_value",
          "type": "uint256"
        },
        {
          "internalType": "address payable",
          "name": "_recipient",
          "type": "address"
        }
      ],
      "name": "createRequest",
      "outputs": [],
      "stateMutability": "nonpayable",
      "type": "function"
    },
    {
      "inputs": [
        {
          "internalType": "string",
          "name": "_dateRating",
          "type": "string"
        },
        {
          "internalType": "string",
          "name": "_descriptionRating",
          "type": "string"
        },
        {
          "internalType": "uint256",
          "name": "_star",
          "type": "uint256"
        }
      ],
      "name": "createRating",
      "outputs": [],
      "stateMutability": "nonpayable",
      "type": "function"
    },
    {
      "inputs": [
        {
          "internalType": "uint256",
          "name": "_index",
          "type": "uint256"
        }
      ],
      "name": "approveRequest",
      "outputs": [],
      "stateMutability": "nonpayable",
      "type": "function"
    },
    {
      "inputs": [
        {
          "internalType": "uint256",
          "name": "_index",
          "type": "uint256"
        }
      ],
      "name": "finalizeRequest",
      "outputs": [],
      "stateMutability": "nonpayable",
      "type": "function"
    },
    {
      "inputs": [],
      "name": "getSummary",
      "outputs": [
        {
          "internalType": "uint256",
          "name": "",
          "type": "uint256"
        },
        {
          "internalType": "string",
          "name": "",
          "type": "string"
        },
        {
          "internalType": "string",
          "name": "",
          "type": "string"
        },
        {
          "internalType": "string",
          "name": "",
          "type": "string"
        },
        {
          "internalType": "uint256",
          "name": "",
          "type": "uint256"
        },
        {
          "internalType": "uint256",
          "name": "",
          "type": "uint256"
        },
        {
          "internalType": "uint256",
          "name": "",
          "type": "uint256"
        },
        {
          "internalType": "address",
          "name": "",
          "type": "address"
        },
        {
          "internalType": "string",
          "name": "",
          "type": "string"
        },
        {
          "internalType": "string",
          "name": "",
          "type": "string"
        }
      ],
      "stateMutability": "view",
      "type": "function",
      "constant": true
    },
    {
      "inputs": [],
      "name": "getRequestsCount",
      "outputs": [
        {
          "internalType": "uint256",
          "name": "",
          "type": "uint256"
        }
      ],
      "stateMutability": "view",
      "type": "function",
      "constant": true
    },
    {
      "inputs": [],
      "name": "getListContributeCount",
      "outputs": [
        {
          "internalType": "uint256",
          "name": "",
          "type": "uint256"
        }
      ],
      "stateMutability": "view",
      "type": "function",
      "constant": true
    },
    {
      "inputs": [],
      "name": "getRatingCount",
      "outputs": [
        {
          "internalType": "uint256",
          "name": "",
          "type": "uint256"
        }
      ],
      "stateMutability": "view",
      "type": "function",
      "constant": true
    }
  ],
  "bytecode": "0x60806040523480156200001157600080fd5b5060405162001ce938038062001ce98339810160408190526200003491620001fe565b600080546001600160a01b0319166001600160a01b038816179055600187905560026200006286826200038b565b5060036200007185826200038b565b5060046200008084826200038b565b5060056200008f83826200038b565b5060066200009e82826200038b565b507f7ff008437136cad944b8ea3d77027090b4b4065ca3648b0320a2bc74c32349c3604051620000ff9060208082526014908201527f43616d706169676e207761732063726561746564000000000000000000000000604082015260600190565b60405180910390a15050505050505062000457565b80516001600160a01b03811681146200012c57600080fd5b919050565b634e487b7160e01b600052604160045260246000fd5b600082601f8301126200015957600080fd5b81516001600160401b038082111562000176576200017662000131565b604051601f8301601f19908116603f01168101908282118183101715620001a157620001a162000131565b81604052838152602092508683858801011115620001be57600080fd5b600091505b83821015620001e25785820183015181830184015290820190620001c3565b83821115620001f45760008385830101525b9695505050505050565b600080600080600080600060e0888a0312156200021a57600080fd5b875196506200022c6020890162000114565b60408901519096506001600160401b03808211156200024a57600080fd5b620002588b838c0162000147565b965060608a01519150808211156200026f57600080fd5b6200027d8b838c0162000147565b955060808a01519150808211156200029457600080fd5b620002a28b838c0162000147565b945060a08a0151915080821115620002b957600080fd5b620002c78b838c0162000147565b935060c08a0151915080821115620002de57600080fd5b50620002ed8a828b0162000147565b91505092959891949750929550565b600181811c908216806200031157607f821691505b6020821081036200033257634e487b7160e01b600052602260045260246000fd5b50919050565b601f8211156200038657600081815260208120601f850160051c81016020861015620003615750805b601f850160051c820191505b8181101562000382578281556001016200036d565b5050505b505050565b81516001600160401b03811115620003a757620003a762000131565b620003bf81620003b88454620002fc565b8462000338565b602080601f831160018114620003f75760008415620003de5750858301515b600019600386901b1c1916600185901b17855562000382565b600085815260208120601f198616915b82811015620004285788860151825594840194600190910190840162000407565b5085821015620004475787850151600019600388901b60f8161c191681555b5050505050600190811b01905550565b61188280620004676000396000f3fe6080604052600436106101405760003560e01c80635d30e84d116100b65780639a5ba7451161006f5780639a5ba745146103a4578063a14ea4fa146103b9578063ae817f9a146103ce578063cd5dbb10146103e1578063d7d1bbdb146103f7578063f7cbb1b21461041757600080fd5b80635d30e84d146102c857806371c91f77146102f857806381d12c581461032757806382fde093146103585780638a9cfd551461036e578063937e09b11461038e57600080fd5b8063110842cb11610108578063110842cb146102075780631b8305851461021c578063227c1f18146102315780633410452a146102505780634051ddac14610265578063481c6a751461029057600080fd5b806303441006146101455780630637d75f146101675780630724fda9146101875780630a144391146101b25780630c446a19146101f2575b600080fd5b34801561015157600080fd5b50610165610160366004611263565b610447565b005b34801561017357600080fd5b5061016561018236600461131f565b610664565b34801561019357600080fd5b5061019c6107d1565b6040516101a991906113d9565b60405180910390f35b3480156101be57600080fd5b506101e26101cd36600461140b565b60076020526000908152604090205460ff1681565b60405190151581526020016101a9565b3480156101fe57600080fd5b5061019c61085f565b34801561021357600080fd5b5061019c61086c565b34801561022857600080fd5b5061019c610879565b34801561023d57600080fd5b50600d545b6040519081526020016101a9565b34801561025c57600080fd5b50600b54610242565b34801561027157600080fd5b5061027a610886565b6040516101a99a99989796959493929190611428565b34801561029c57600080fd5b506000546102b0906001600160a01b031681565b6040516001600160a01b0390911681526020016101a9565b3480156102d457600080fd5b506102e86102e3366004611263565b610b9d565b6040516101a994939291906114c9565b34801561030457600080fd5b50610318610313366004611263565b610cfc565b6040516101a99392919061150f565b34801561033357600080fd5b50610347610342366004611263565b610dc8565b6040516101a995949392919061153d565b34801561036457600080fd5b50610242600a5481565b34801561037a57600080fd5b5061016561038936600461157d565b610ea7565b34801561039a57600080fd5b5061024260015481565b3480156103b057600080fd5b50600c54610242565b3480156103c557600080fd5b5061019c610f8b565b6101656103dc3660046115d8565b610f98565b3480156103ed57600080fd5b5061024260095481565b34801561040357600080fd5b50610165610412366004611263565b6110f7565b34801561042357600080fd5b506101e261043236600461140b565b60086020526000908152604090205460ff1681565b6000546001600160a01b0316331461047a5760405162461bcd60e51b81526004016104719061161d565b60405180910390fd5b6000600b828154811061048f5761048f611664565b906000526020600020906005020190508060020160149054906101000a900460ff16156105135760405162461bcd60e51b815260206004820152602c60248201527f596f752063616e27742066696e616c697a6520612072657175657374206d6f7260448201526b65207468616e206f6e63652160a01b6064820152608401610471565b6002600a546105229190611690565b8160030154116105c05760405162461bcd60e51b815260206004820152605860248201527f4174206c6561737420353025206f662074686520617070726f76657273206d7560448201527f7374206861766520617070726f7665642074686973207265717565737420626560648201527f666f72652069742063616e2062652066696e616c697a65640000000000000000608482015260a401610471565b60028101805460ff60a01b198116600160a01b1790915560018201546040516001600160a01b039092169181156108fc0291906000818181858888f19350505050158015610612573d6000803e3d6000fd5b5060008051602061182d8339815191526040516106589060208082526015908201527414995c5d595cdd081dd85cc8199a5b985b1a5e9959605a1b604082015260600190565b60405180910390a15050565b3360009081526007602052604090205460ff166106be5760405162461bcd60e51b81526020600482015260186024820152772cb7bab91036bab9ba1031329030b71030b8383937bb32b960411b6044820152606401610471565b3360009081526008602052604090205460ff161561072f5760405162461bcd60e51b815260206004820152602860248201527f596f752063616e277420726174696e672063616d706169676e206d6f7265207460448201526768616e206f6e636560c01b6064820152608401610471565b600d80546001810182556000919091526004027fd7b6990105719101dabeb77144f2a3385c8033acd3af97e9423a695e81ad1eb5018061076f858261173b565b506001810180546001600160a01b0319163317905560028101610792848261173b565b5060038101829055336000908152600860205260408120805460ff19166001179055600980548492906107c69084906117fb565b909155505050505050565b600280546107de906116b2565b80601f016020809104026020016040519081016040528092919081815260200182805461080a906116b2565b80156108575780601f1061082c57610100808354040283529160200191610857565b820191906000526020600020905b81548152906001019060200180831161083a57829003601f168201915b505050505081565b600580546107de906116b2565b600380546107de906116b2565b600480546107de906116b2565b6000606080606060008060008060608060015460026003600447600b80549050600a5460008054906101000a90046001600160a01b0316600560068880546108cd906116b2565b80601f01602080910402602001604051908101604052809291908181526020018280546108f9906116b2565b80156109465780601f1061091b57610100808354040283529160200191610946565b820191906000526020600020905b81548152906001019060200180831161092957829003601f168201915b50505050509850878054610959906116b2565b80601f0160208091040260200160405190810160405280929190818152602001828054610985906116b2565b80156109d25780601f106109a7576101008083540402835291602001916109d2565b820191906000526020600020905b8154815290600101906020018083116109b557829003601f168201915b505050505097508680546109e5906116b2565b80601f0160208091040260200160405190810160405280929190818152602001828054610a11906116b2565b8015610a5e5780601f10610a3357610100808354040283529160200191610a5e565b820191906000526020600020905b815481529060010190602001808311610a4157829003601f168201915b50505050509650818054610a71906116b2565b80601f0160208091040260200160405190810160405280929190818152602001828054610a9d906116b2565b8015610aea5780601f10610abf57610100808354040283529160200191610aea565b820191906000526020600020905b815481529060010190602001808311610acd57829003601f168201915b50505050509150808054610afd906116b2565b80601f0160208091040260200160405190810160405280929190818152602001828054610b29906116b2565b8015610b765780601f10610b4b57610100808354040283529160200191610b76565b820191906000526020600020905b815481529060010190602001808311610b5957829003601f168201915b50505050509050995099509950995099509950995099509950995090919293949596979899565b600d8181548110610bad57600080fd5b9060005260206000209060040201600091509050806000018054610bd0906116b2565b80601f0160208091040260200160405190810160405280929190818152602001828054610bfc906116b2565b8015610c495780601f10610c1e57610100808354040283529160200191610c49565b820191906000526020600020905b815481529060010190602001808311610c2c57829003601f168201915b505050600184015460028501805494956001600160a01b03909216949193509150610c73906116b2565b80601f0160208091040260200160405190810160405280929190818152602001828054610c9f906116b2565b8015610cec5780601f10610cc157610100808354040283529160200191610cec565b820191906000526020600020905b815481529060010190602001808311610ccf57829003601f168201915b5050505050908060030154905084565b600c8181548110610d0c57600080fd5b9060005260206000209060030201600091509050806000018054610d2f906116b2565b80601f0160208091040260200160405190810160405280929190818152602001828054610d5b906116b2565b8015610da85780601f10610d7d57610100808354040283529160200191610da8565b820191906000526020600020905b815481529060010190602001808311610d8b57829003601f168201915b50505050600183015460029093015491926001600160a01b031691905083565b600b8181548110610dd857600080fd5b9060005260206000209060050201600091509050806000018054610dfb906116b2565b80601f0160208091040260200160405190810160405280929190818152602001828054610e27906116b2565b8015610e745780601f10610e4957610100808354040283529160200191610e74565b820191906000526020600020905b815481529060010190602001808311610e5757829003601f168201915b5050505060018301546002840154600390940154929390926001600160a01b0382169250600160a01b90910460ff169085565b6000546001600160a01b03163314610ed15760405162461bcd60e51b81526004016104719061161d565b600b80546001810182556000919091526005027f0175b7a638427703f0dbe7bb9bbf987a2551717b34e79f33b5b1008d1fa01db90180610f11858261173b565b50600181018390556002810180546001600160a81b0319166001600160a01b0384161790556000600382015560405160008051602061182d83398151915290610f7d906020808252600f908201526e14995c5d595cdd0818dc99585d1959608a1b604082015260600190565b60405180910390a150505050565b600680546107de906116b2565b600154341015610ffe5760405162461bcd60e51b815260206004820152602b60248201527f596f75206d75737420636f6e747269627574652061206d696e696d756d20616d60448201526a6f756e74206f662077656960a81b6064820152608401610471565b3360009081526007602052604081205460ff161515900361102f57600a805490600061102983611813565b91905055505b336000908152600760205260408120805460ff19166001908117909155600c805491820181559091526003027fdf6966c971051c3d54ec59162606531493a51404a002842f56009d7e5cf4a8c70180611088848261173b565b506001810180546001600160a01b031916331790556002810182905560405160008051602061182d833981519152906110ea90602080825260159082015274436f6e747269627574696f6e20776173206d61646560581b604082015260600190565b60405180910390a1505050565b3360009081526007602052604090205460ff166111515760405162461bcd60e51b81526020600482015260186024820152772cb7bab91036bab9ba1031329030b71030b8383937bb32b960411b6044820152606401610471565b6000600b828154811061116657611166611664565b600091825260208083203384526004600590930201918201905260409091205490915060ff16156111ea5760405162461bcd60e51b815260206004820152602860248201527f596f752063616e277420617070726f76652072657175657374206d6f7265207460448201526768616e206f6e636560c01b6064820152608401610471565b6003810180549060006111fc83611813565b909155505033600090815260048201602052604090819020805460ff191660011790555160008051602061182d8339815191529061065890602080825260159082015274105c1c1c9bdd985b081c995c5d595cdd081cd95b9d605a1b604082015260600190565b60006020828403121561127557600080fd5b5035919050565b634e487b7160e01b600052604160045260246000fd5b600082601f8301126112a357600080fd5b813567ffffffffffffffff808211156112be576112be61127c565b604051601f8301601f19908116603f011681019082821181831017156112e6576112e661127c565b816040528381528660208588010111156112ff57600080fd5b836020870160208301376000602085830101528094505050505092915050565b60008060006060848603121561133457600080fd5b833567ffffffffffffffff8082111561134c57600080fd5b61135887838801611292565b9450602086013591508082111561136e57600080fd5b5061137b86828701611292565b925050604084013590509250925092565b6000815180845260005b818110156113b257602081850181015186830182015201611396565b818111156113c4576000602083870101525b50601f01601f19169290920160200192915050565b6020815260006113ec602083018461138c565b9392505050565b6001600160a01b038116811461140857600080fd5b50565b60006020828403121561141d57600080fd5b81356113ec816113f3565b60006101408c83528060208401526114428184018d61138c565b90508281036040840152611456818c61138c565b9050828103606084015261146a818b61138c565b608084018a905260a0840189905260c084018890526001600160a01b03871660e085015283810361010085015290506114a3818661138c565b90508281036101208401526114b8818561138c565b9d9c50505050505050505050505050565b6080815260006114dc608083018761138c565b6001600160a01b038616602084015282810360408401526114fd818661138c565b91505082606083015295945050505050565b606081526000611522606083018661138c565b6001600160a01b039490941660208301525060400152919050565b60a08152600061155060a083018861138c565b6020830196909652506001600160a01b039390931660408401529015156060830152608090910152919050565b60008060006060848603121561159257600080fd5b833567ffffffffffffffff8111156115a957600080fd5b6115b586828701611292565b9350506020840135915060408401356115cd816113f3565b809150509250925092565b600080604083850312156115eb57600080fd5b823567ffffffffffffffff81111561160257600080fd5b61160e85828601611292565b95602094909401359450505050565b60208082526027908201527f4f6e6c7920746865206f776e65722063616e20706572666f726d207468697320604082015266616374696f6e2160c81b606082015260800190565b634e487b7160e01b600052603260045260246000fd5b634e487b7160e01b600052601160045260246000fd5b6000826116ad57634e487b7160e01b600052601260045260246000fd5b500490565b600181811c908216806116c657607f821691505b6020821081036116e657634e487b7160e01b600052602260045260246000fd5b50919050565b601f82111561173657600081815260208120601f850160051c810160208610156117135750805b601f850160051c820191505b818110156117325782815560010161171f565b5050505b505050565b815167ffffffffffffffff8111156117555761175561127c565b6117698161176384546116b2565b846116ec565b602080601f83116001811461179e57600084156117865750858301515b600019600386901b1c1916600185901b178555611732565b600085815260208120601f198616915b828110156117cd578886015182559484019460019091019084016117ae565b50858210156117eb5787850151600019600388901b60f8161c191681555b5050505050600190811b01905550565b6000821982111561180e5761180e61167a565b500190565b6000600182016118255761182561167a565b506001019056fe7ff008437136cad944b8ea3d77027090b4b4065ca3648b0320a2bc74c32349c3a264697066735822122094b2c8a5ca268812ab82342eae547a2d19d1fb78632ab86bae9bf723d1f0c1ff64736f6c634300080f0033",
  "immutableReferences": {},
  "source": "// SPDX-License-Identifier: MIT\r\npragma solidity ^0.8.1;\r\n\r\n//this contract creates campaigns and tracks the campaigns that have been deployed\r\ncontract CampaignFactory {\r\n    //stores deployed campaigns in array\r\n    address[] public deployedContracts;\r\n\r\n    //creates campaign and adds it to the array for tracking\r\n    function createCampaign(uint256 minimum, string memory name, string memory des, string memory img, string memory startTimer, string memory endTimer) public {\r\n        address newCampaign = address(new Campaign(minimum, msg.sender, name, des, img, startTimer, endTimer));\r\n        deployedContracts.push(newCampaign);\r\n\r\n        emit CampaignFactoryAction(\"New campaign deployed via CampaignFactory\");\r\n    }\r\n\r\n    //returns an array of deployed campaign contract addresses\r\n    function getDeployedContracts() public view returns (address[] memory) {\r\n        return deployedContracts;\r\n    }\r\n\r\n    event CampaignFactoryAction(string actionTaken);\r\n}\r\n\r\ncontract Campaign {\r\n    event CampaignAction(string actionTaken);\r\n\r\n    //stores manager/contract creator\r\n    address public manager;\r\n\r\n    //stores min. contribution to create a Campaign\r\n    uint256 public minimumContribution;\r\n    string public campaignName;\r\n    string public campaignDescription;\r\n    string public campaginImage;\r\n    string public campaignStartTimer;\r\n    string public campaignEndTimer;\r\n\r\n    //stores approvers/contributors\r\n    mapping(address => bool) public approvers;\r\n\r\n    //store user rating\r\n    mapping(address => bool) public reviewers;\r\n    uint public sumRating;\r\n\r\n\r\n    //stores the number of approvers (used in the formula when determining if > 50% have approved request)\r\n    uint256 public approversCount;\r\n\r\n    //struct stores Request info\r\n    struct Request {\r\n        string description;\r\n        uint256 value;\r\n        address payable recipient;\r\n        bool complete;\r\n        uint256 approvalCount;\r\n        mapping(address => bool)  approvals;\r\n    }\r\n\r\n    //stores array of campaign request\r\n    Request[] public requests;\r\n\r\n    struct ListContribute {\r\n        string dateContribute;\r\n        address contributer;\r\n        uint mountContribute;\r\n    }\r\n\r\n    ListContribute[] public listcontributes;\r\n    \r\n    //struct store rating campaign\r\n    struct Rating {\r\n        string dateRating;\r\n        address reviewer;\r\n        string descriptionRating;\r\n        uint starRating;\r\n    }\r\n    Rating[] public ratings;\r\n\r\n    //constructor requires a min. wei amount, and the creators eth address\r\n    constructor(uint256 _minimumContribution, address creator, string memory _campaginName, string memory _campaignDescription, \r\n        string memory _campaginImage, string memory timerStart, string memory timerEnd) {\r\n        manager = creator;\r\n        minimumContribution = _minimumContribution;\r\n        campaignName = _campaginName;\r\n        campaignDescription = _campaignDescription;\r\n        campaginImage = _campaginImage;\r\n        campaignStartTimer = timerStart;\r\n        campaignEndTimer = timerEnd;\r\n        emit CampaignAction(\"Campaign was created\"); \r\n    }\r\n\r\n    //\r\n    function contribute(string memory _dateContribute, uint _mountContribute) public payable {\r\n        //validates the minimum contribution amount is sent to the Campaign contract\r\n        require(\r\n            msg.value >= minimumContribution,\r\n            \"You must contribute a minimum amount of wei\"\r\n        );\r\n\r\n        //adds the contributors address to the approver array and increments the approver count by 1\r\n\r\n        if(approvers[msg.sender] == false ) {\r\n            approversCount++;\r\n        }\r\n        approvers[msg.sender] = true;\r\n        \r\n        ListContribute storage newListContribute = listcontributes.push();\r\n        newListContribute.dateContribute = _dateContribute;\r\n        newListContribute.contributer = msg.sender;\r\n        newListContribute.mountContribute = _mountContribute;\r\n\r\n        emit CampaignAction(\"Contribution was made\");\r\n    }\r\n\r\n    //creates a campaign request only is the caller is the owner of the contract\r\n    function createRequest(\r\n        string memory _description,\r\n        uint256 _value,\r\n        address payable _recipient\r\n    ) public onlyOwner {\r\n        Request storage newRequest = requests.push();\r\n        newRequest.description = _description;\r\n        newRequest.value = _value;\r\n        newRequest.recipient = _recipient;\r\n        newRequest.complete = false;\r\n        newRequest.approvalCount = 0;\r\n\r\n        emit CampaignAction(\"Request created\");\r\n    }\r\n\r\n    // creaete rating\r\n\r\n    function createRating(string memory _dateRating, string memory _descriptionRating, uint _star) public onlyApprover {\r\n        require(\r\n            !reviewers[msg.sender],\r\n            \"You can't rating campaign more than once\"\r\n        );\r\n        Rating storage newRating = ratings.push();\r\n        newRating.dateRating = _dateRating;\r\n        newRating.reviewer = msg.sender;\r\n        newRating.descriptionRating = _descriptionRating;\r\n        newRating.starRating = _star;\r\n        reviewers[msg.sender] = true;\r\n        sumRating+=_star;\r\n    }\r\n\r\n    function approveRequest(uint256 _index) public onlyApprover {\r\n        //retrieves the campaign request from the ethereum blockchain\r\n        Request storage request = requests[_index];\r\n\r\n        //makes sure contract caller does not approve request more than once\r\n        require(\r\n            !request.approvals[msg.sender],\r\n            \"You can't approve request more than once\"\r\n        );\r\n\r\n        //increments the approvalCount by 1\r\n        request.approvalCount++;\r\n        request.approvals[msg.sender] = true; //helper function to add callers address to approvals mapping\r\n        \r\n        emit CampaignAction(\"Approval request sent\");\r\n    }\r\n\r\n\r\n    function finalizeRequest(uint256 _index) public onlyOwner {\r\n        //using storage keyword to show that we are looking at the same Request that already exist in storage\r\n        Request storage request = requests[_index];\r\n\r\n        //validates request has not already been approved\r\n        require(\r\n            !request.complete,\r\n            \"You can't finalize a request more than once!\"\r\n        );\r\n\r\n        //validates more than 50% of the approvers have approved te request\r\n        require(\r\n            request.approvalCount > (approversCount / 2),\r\n            \"At least 50% of the approvers must have approved this request before it can be finalized\"\r\n        );\r\n\r\n        //sets the request as approved and transfers the ETH to the recipient address in the request \r\n        request.complete = true;\r\n        request.recipient.transfer(request.value);\r\n\r\n        emit CampaignAction(\"Request was finalized\");\r\n    }\r\n\r\n    //returns a summary of the campaign request in a Result object\r\n\r\n    function getSummary() public  view returns (uint,string memory, string memory, string memory, uint, uint, uint, address, string memory, string memory)  {\r\n        return (\r\n            minimumContribution,\r\n            campaignName,\r\n            campaignDescription,\r\n            campaginImage,\r\n            address(this).balance,\r\n            requests.length,\r\n            approversCount,\r\n            manager,\r\n            campaignStartTimer,\r\n            campaignEndTimer\r\n        );\r\n    }\r\n\r\n    function getRequestsCount() public view returns (uint) {\r\n        return requests.length;\r\n    }\r\n\r\n    function getListContributeCount() public view returns (uint) {\r\n        return listcontributes.length;\r\n    }\r\n\r\n    function getRatingCount() public view returns (uint) {\r\n        return ratings.length;\r\n    }\r\n\r\n    //modifier to check if address is an approver\r\n    modifier onlyApprover() {\r\n        require(approvers[msg.sender], \"Your must be an approver\");\r\n        _;\r\n    }\r\n\r\n    //modifier to check if the caller is the contract owner\r\n    modifier onlyOwner() {\r\n        require(\r\n            manager == msg.sender,\r\n            \"Only the owner can perform this action!\"\r\n        );\r\n        _;\r\n    }\r\n}",
  "sourcePath": "D:\\Project\\blockchain-crowd-fund-campaign\\contracts\\Campaign.sol",
  "compiler": {
    "name": "solc",
    "version": "0.8.15+commit.e14f2714.Emscripten.clang"
  },
  "schemaVersion": "3.4.6",
  "updatedAt": "2022-06-18T00:57:18.985Z",
  "networkType": "ethereum",
  "devdoc": {
    "kind": "dev",
    "methods": {},
    "version": 1
  },
  "userdoc": {
    "kind": "user",
    "methods": {},
    "version": 1
  }
}